:020000040000fa
:080000000001040000000000f3
:020000040000fa
:04000800ec02000006
:020000040000fa
:04000c002e030000bf
:020000040000fa
:040010006e0300007b
:020000040000fa
:040014000c030000d9
:020000040000fa
:040018004e03000093
:020000040000fa
:04001c008e0400004e
:020000040000fa
:040020008e0300004b
:020000040000fa
:040024008e04000046
:020000040000fa
:040028008e04000042
:020000040000fa
:04002c008e0400003e
:020000040000fa
:040030008e0400003a
:020000040000fa
:040034008e04000036
:020000040000fa
:040038008e04000032
:020000040000fa
:04003c008e0400002e
:020000040000fa
:040040008e0400002a
:020000040000fa
:040044008e04000026
:020000040000fa
:040048008e04000022
:020000040000fa
:04004c008e0400001e
:020000040000fa
:040050008e0400001a
:020000040000fa
:04005400cc030000d9
:020000040000fa
:04005800ae030000f3
:020000040000fa
:04005c008e0400000e
:020000040000fa
:040060008e0400000a
:020000040000fa
:040064008e04000006
:020000040000fa
:040068001e04000072
:020000040000fa
:04006c00000400008c
:020000040000fa
:040070008e040000fa
:020000040000fa
:040074008e040000f6
:020000040000fa
:040078008e040000f2
:020000040000fa
:04007c008e040000ee
:020000040000fa
:040080008e040000ea
:020000040000fa
:040084008e040000e6
:020000040000fa
:040088008e040000e2
:020000040000fa
:04008c008e040000de
:020000040000fa
:040090008e040000da
:020000040000fa
:040094008e040000d6
:020000040000fa
:040098008e040000d2
:020000040000fa
:04009c008e040000ce
:020000040000fa
:0400a0005a040000fe
:020000040000fa
:0400a4003c04000018
:020000040000fa
:0400a8008e040000c2
:020000040000fa
:0400ac008e040000be
:020000040000fa
:0400b0008e040000ba
:020000040000fa
:0400b4008e040000b6
:020000040000fa
:0400b8008e040000b2
:020000040000fa
:0400bc008e040000ae
:020000040000fa
:0400c0008e040000aa
:020000040000fa
:0400c4008e040000a6
:020000040000fa
:0400c8008e040000a2
:020000040000fa
:0400cc008e0400009e
:020000040000fa
:0400d0008e0400009a
:020000040000fa
:0400d4008e04000096
:020000040000fa
:0400d8008e04000092
:020000040000fa
:0400dc008e0400008e
:020000040000fa
:0400e0008e0400008a
:020000040000fa
:0400e4008e04000086
:020000040000fa
:0400e8008e04000082
:020000040000fa
:0400ec008e0400007e
:020000040000fa
:0400f0008e0400007a
:020000040000fa
:0400f4008e04000076
:020000040000fa
:0400f8008e04000072
:020000040000fa
:0400fc008e0400006e
:020000040000fa
:040100008e04000069
:020000040000fa
:040104008e04000065
:020000040000fa
:040108008e04000061
:020000040000fa
:04010c008e0400005d
:020000040000fa
:040110008e04000059
:020000040000fa
:040114008e04000055
:020000040000fa
:040118008e04000051
:020000040000fa
:04011c008e0400004d
:020000040000fa
:040120008e04000049
:020000040000fa
:040124008e04000045
:020000040000fa
:040128008e04000041
:020000040000fa
:04012c00ea030000e2
:020000040000fa
:04013000780400004f
:020000040000fa
:040134008e04000035
:020000040000fa
:040138008e04000031
:020000040000fa
:04013c008e0400002d
:020000040000fa
:040140008e04000029
:020000040000fa
:040144008e04000025
:020000040000fa
:040148008e04000021
:020000040000fa
:04014c008e0400001d
:020000040000fa
:040150008e04000019
:020000040000fa
:040154008e04000015
:020000040000fa
:040158008e04000011
:020000040000fa
:04015c008e0400000d
:020000040000fa
:040160008e04000009
:020000040000fa
:040164008e04000005
:020000040000fa
:040168008e04000001
:020000040000fa
:04016c008e040000fd
:020000040000fa
:040170008e040000f9
:020000040000fa
:040174008e040000f5
:020000040000fa
:040178008e040000f1
:020000040000fa
:04017c008e040000ed
:020000040000fa
:040180008e040000e9
:020000040000fa
:040184008e040000e5
:020000040000fa
:040188008e040000e1
:020000040000fa
:04018c008e040000dd
:020000040000fa
:040190008e040000d9
:020000040000fa
:040194008e040000d5
:020000040000fa
:040198008e040000d1
:020000040000fa
:04019c008e040000cd
:020000040000fa
:0401a0008e040000c9
:020000040000fa
:0401a4008e040000c5
:020000040000fa
:0401a8008e040000c1
:020000040000fa
:0401ac008e040000bd
:020000040000fa
:0401b0008e040000b9
:020000040000fa
:0401b4008e040000b5
:020000040000fa
:0401b8008e040000b1
:020000040000fa
:0401bc008e040000ad
:020000040000fa
:0401c0008e040000a9
:020000040000fa
:0401c4008e040000a5
:020000040000fa
:0401c8008e040000a1
:020000040000fa
:0401cc008e0400009d
:020000040000fa
:0401d0008e04000099
:020000040000fa
:0401d4008e04000095
:020000040000fa
:0401d8008e04000091
:020000040000fa
:0401dc008e0400008d
:020000040000fa
:0401e0008e04000089
:020000040000fa
:0401e4008e04000085
:020000040000fa
:0401e8008e04000081
:020000040000fa
:0401ec008e0400007d
:020000040000fa
:0401f0008e04000079
:020000040000fa
:0401f4008e04000075
:020000040000fa
:0401f8008e04000071
:020000040000fa
:0401fc008e0400006d
:020000040000fa
:100200006fbe20000e7f22000e018800000000005b
:10021000000020000000e000020032000001200089
:100220002002880014000700fe0107000000e00023
:1002300003003a0020ad2400010020000200370036
:100240000000200001002000810f7000010032003a
:1002500014000700000020000000e000020032004f
:100260000000020000000000c04a02000000000080
:100270000040da000000fe004440a900e021200018
:100280000000e00003003200002020009001880000
:100290004440a800000006008a1f78008b1f7800e9
:1002a00000000600a1028800800478000000eb0036
:1002b0001f003700e284440054a0b4009905ba003e
:1002c000e284440054a0b4009906ba00e2844400d9
:1002d00054a0b4000006eb00476fde00fd07b2003b
:1002e000ae018800636ce10003003a00eaff0700fa
:1002f0000000eb000e003700606ce10008003a00df
:10030000004deb000a05e800020039003420ec0043
:100310000af0a0008b05e900f9ff3e000400370059
:100320006168e100010032000086eb000b0007006d
:1003300019c7ba001905ba000e04e00003003a001c
:100340000a00e000dbff3a0000000600fe07b200f2
:10035000ae0288008a047800f5ff37000cd0a300b5
:10036000e20f4d001c00390089027800354dba00bb
:100370000a05e800020039003420ec000af0a00071
:100380008b05e9000f003200254dba000a05e80090
:10039000020039003420ec000af0a0008b05e900cf
:1003a000080032000c00e0000600320015cdba0053
:1003b0000a05e800020039003420ec000af0a00031
:1003c0008b05e9008984e80054a0b4000b00e0002c
:1003d000e2ff3a00000006009902ba00055d7800cd
:1003e0008b05e900f7ff3200c82ade00055d7800c2
:1003f0008b05e900f3ff32000c00e000f1ff320052
:1004000019ddba00eeff3700000000000000000018
:1004100000000000000000000000000000000000dc
:1004200000000000000000000000000000000000cc
:1004300000000000000000000000000000000000bc
:1004400000000000000000000000000000000000ac
:10045000000000000000000000000000000000009c
:10046000000000000000000000000000000000008c
:10047000000000000000000000000000000000007c
:10048000000000000000000000000000000000006c
:10049000000000000000000000000000000000005c
:1004a000000000000000000000000000000000004c
:1004b000000000000000000000000000000000003c
:1004c000000000000000000000000000000000002c
:1004d000000000000000000000000000000000001c
:1004e000000000000000000000000000000000000c
:1004f00000000000000000000000000000000000fc
:1005000000000000000000000000000000000000eb
:1005100000000000000000000000000000000000db
:1005200000000000000000000000000000000000cb
:1005300000000000000000000000000000000000bb
:1005400000000000000000000000000000000000ab
:10055000000000000000000000000000000000009b
:10056000000000000000000000000000000000008b
:10057000000000000000000000000000000000007b
:10058000000000000000000000000000000000006b
:10059000000000000000000000000000000000005b
:1005a000000000000000000000000000000000004b
:1005b000000000000000000000000000000000003b
:1005c000000000000000000000000000000000002b
:1005d00000000000000000003600f800809fbe0010
:1005e000829fbe00849fbe00869fbe000000fa006e
:1005f0008020a9000000eb004d2507000080fa00d4
:100600004f03be004f02be004f01be004f00be00b0
:100610003600f900004006003600f800809fbe005a
:10062000829fbe00849fbe00869fbe000000fa002d
:10063000442507008040a900100020003c25070049
:100640000080fa004f03be004f02be004f01be0003
:100650004f00be003600f900004006003600f800ea
:10066000809fbe00829fbe00849fbe00869fbe000a
:100670000000fa008060a900200020002c2507005f
:100680000080fa004f03be004f02be004f01be00c3
:100690004f00be003600f900004006003600f800aa
:1006a000809fbe00829fbe00849fbe00869fbe00ca
:1006b0000000fa008080a900300020001c250700ff
:1006c0000080fa004f03be004f02be004f01be0083
:1006d0004f00be003600f900004006003600f8006a
:1006e000809fbe00829fbe00849fbe00869fbe008a
:1006f0000000fa008600a900700020000c25070009
:100700000080fa004f03be004f02be004f01be0042
:100710004f00be003600f900004006003600f80029
:10072000809fbe00829fbe00849fbe00869fbe0049
:100730000000fa0085e0a90080002000fc240700ea
:100740000080fa004f03be004f02be004f01be0002
:100750004f00be003600f900004006003600f800e9
:10076000809fbe00829fbe00849fbe00869fbe0009
:100770000000fa0050408000000001000080fa00f4
:100780004f03be004f02be004f01be004f00be002f
:100790003600f900004006003600f800809fbe00d9
:1007a000829fbe00849fbe00869fbe000000fa00ac
:1007b00060408000000001000080fa004f03be008e
:1007c0004f02be004f01be004f00be003600f900d0
:1007d00000400600801f78000000fa00d01c800056
:1007e000620060000000e000010032009a23a900ce
:1007f0009020a9000080fa004f0078000040060019
:100800003600f800809fbe00829fbe00849fbe001d
:10081000869fbe000000fa00a04180000000010099
:100820000080fa004f03be004f02be004f01be0021
:100830004f00be003600f900004006003600f80008
:10084000809fbe00829fbe00849fbe00869fbe0028
:100850000000fa00b0418000000001000080fa00b2
:100860004f03be004f02be004f01be004f00be004e
:100870003600f900004006003600f800809fbe00f8
:10088000829fbe00849fbe00869fbe000000fa00cb
:10089000c0408000000001000080fa004f03be004d
:1008a0004f02be004f01be004f00be003600f900ef
:1008b000004006003600f800809fbe00829fbe0008
:1008c000849fbe00869fbe000000fa00d0408000da
:1008d000000001000080fa004f03be004f02be007e
:1008e0004f01be004f00be003600f9000040060078
:1008f000801f78000000fa00801d80006200600008
:100900000000e00001003200b023a9009040a900df
:100910000080fa004f007800004006000040da0036
:100920000000fe00ec8747008e1f78006c875700a0
:1009300044002000041f7800000f78006c875700e7
:1009400002afbe00e1bf9f006c8057003d10070062
:100950001e00be004f077800cf00b1000000060067
:10096000ec8747008e1f780011002000a1bf9f0078
:100970006c875700002f78006c80570033100700f9
:100980001e0078004f077800cf00b100000006007d
:100990000a00fa00e4014700800978006600470079
:1009a0000108780068004700020878000e80e8001f
:1009b000e6004700110878000000eb00000f780007
:1009c0000f00370000000000871c07000004a20091
:1009d0000004e000fcff3a000e80e8001000780000
:1009e000104078008e80e800910078000101e80056
:1009f0008e80e800820878005b1c07001e0fe8006c
:100a000068004700100078009e007800808f50003a
:100a1000ecff390068004700100078000080fa0001
:100a200000000600000005000001be001b000700da
:100a30000470a70003f0a10003f8a30013003a001c
:100a40006509b10010003200090035006928e10095
:100a500002003500010028000000050000004000f1
:100a6000818048008502e900fcff3a000000060092
:100a7000f88f4200050035008100d1000080d300ce
:100a80008502e800fcff3a00000006008000eb0051
:100a9000000005006011b8006a033700c70ade00d5
:100aa000f107b200f50fb20008003200e1cf4200ba
:100ab000020032000170a00024000500810f7000c8
:100ac000010032000408050044000500810f700099
:100ad00002003a00140005008502e9000000400011
:100ae00081c04800fcff3b000170a000240005000d
:100af00007f82700078361000638e10004003a0088
:100b0000f7072000878361008703710001003a0026
:100b100003f0a200889fbe008a9fbe008c9fbe008b
:100b2000470ade000480a100c71ade000580a1008c
:100b3000070028000785600087856100f70f200007
:100b40000720e1009e0032000728e1009c003200ef
:100b5000010678000400e000b4003200f70720002e
:100b6000878060000170a0000500e000c000320036
:100b7000f7072000878161000370a000050652007e
:100b80000f003a000b50e1000b0032000308e100b7
:100b900002003a000200e1007e0032000204500030
:100ba00083845800040031000001fd008101fd0034
:100bb0008402fd008a05fd006044b8002100370072
:100bc0000520e10005003d000001fd008101fd0060
:100bd0008402fd008a05fd00050652007a60e100ee
:100be000050035000170a1004722dd0084807000ff
:100bf0008a807000630037006044b800ef0266002e
:100c000007ff2f00070666000500e000060034001d
:100c1000f08312008714dd000511de00071bdd00e4
:100c2000060171008519de007060e10005003500e5
:100c30000904780082047800030178008001eb0049
:100c4000700656000b50e10003003a00020040001d
:100c5000838048000400370060041400e0841c0016
:100c600002005800838058000188a300060032006b
:100c70008100d1000080d3008984d3000884d30090
:100c80000402e800270037000178a30025003a009d
:100c90000100e000030032008186cf006986560023
:100ca0000a0037008c0020000000e00004003a0039
:100cb00009007800880478000004eb0070025200fc
:100cc0008086cf000d0646000c06e9007060e1004a
:100cd000060035008000780009007800880478005c
:100ce0000004eb0070065600700252000c00e00099
:100cf0000c0034008c08dd00f00316000703de0052
:100d0000868070000c00dd00074bde0006007000de
:100d10008c4cdd000743de00868474000c44dd004b
:100d20000c0252006120e1002000350061016000ea
:100d30000700280087816400f7ff2700878364008d
:100d4000070374000300e000060032008203730012
:100d5000040032000000e800e08048000188a300a1
:100d60000e003a00f70f20000720e1004a003d0086
:100d70000170a1004722dd00810072008a807000ae
:100d80000000be004f06be004f05be004f04be006f
:100d9000000006006000b800faff37008100d100b3
:100da0000080d3000402e800eeff37000401780061
:100db00089017400a10107008a807000f1ff3700eb
:100dc000f7010700070278000001fd008101fd0026
:100dd000f301070087027800850372000778a300fb
:100de000040032000001fd008101fd000602070041
:100df000e4ff3700850362000768a30008003200a3
:100e00000b50e10003003200f0ff2f00f1ff27003c
:100e1000dcff37000001fd008101fd00d9ff370034
:100e20000468a300d7ff3200faff3700f8ff27005d
:100e3000888360000b003a000000e00009003a00df
:100e40008303640082837300020032000200be004c
:100e5000ccff37000b50e100ceff3a000200be008d
:100e6000c8ff370014002000810064003eff3700f7
:100e7000f8ff27008883610004003a000200e000c8
:100e800002003a008c007800beff370015002000f9
:100e90008301640039ff370001f8270000002000bb
:100ea00081007500b7ff3700889fbe008a9fbe0093
:100eb0008c9fbe001b0020000202be000586680059
:100ec00006002800060666004709de00f20fb200a1
:100ed000820032000243e80080003200c729de00b1
:100ee000f30fb2007d0032000343e8007b003200c4
:100ef000f107b2000170a000f507b2000570a00074
:100f0000c708dd004903de00868070004700dd0071
:100f1000c72add004923de00868272004722dd00f9
:100f2000030551000403500085835800030031007d
:100f300000004000818048000a05e9008c1f78000d
:100f40008a9fbe00040050008580580004024200c1
:100f500085824a0000004000818048000005eb00c7
:100f60000004be006033b8000406be000d48e10076
:100f700056003100110009004dccd8000c01b8001a
:100f80000d02b8008481410060824a0082835300d0
:100f900003045c0084845c0060055d000a00e000de
:100fa00025003a00800578000d40e100490031003d
:100fb0008800780007007800110009004d88d800eb
:100fc0000c01b8000d02b8008481410060824a0023
:100fd0006003110083835b0004045c00e0845c0018
:100fe0000900e00021003a004f01be000300e000cc
:100ff0002b003200e3016000070673008c81710052
:1010000001003200640070004200de004e5edd0030
:101010000c007000c258de0001e0a0008301070050
:10102000cf017800818071004f06be004f05be00e1
:101030004f04be00000006008c8343000d044c00ea
:10104000e0844c0060054d000000e9000a00e0006b
:10105000d4ff32008c8343000d044c00e0844c002c
:1010600060054d000000e900ceff37000c0343008f
:101070008d834b0060044c00e0844c000000e900cc
:101080000900e000d8ff32000c0343008d834b00c1
:1010900060044c00e0844c000000e900d2ff3700ff
:1010a0004200de004e5edd000c007000c258de0023
:1010b00001e0a000cf0178000300e000daff320079
:1010c00060001000e0801800d7ff3700f0ff2f000d
:1010d000aaff3700f0ff2f00b9ff37000404be005d
:1010e0002f010700870678000004fd008104fd0041
:1010f0002b010700078366000678a3000300320077
:101100000960a7000800be002c0037000d78a3007e
:10111000020032000800be00280037000778a30054
:1011200026003a0001f0a10009f0a1000668a30022
:1011300003003200f1ff2700f0ff2f00baff370055
:101140000d68a300030032000800be008c80700010
:10115000b5ff37000768a30007003a000648a30060
:1011600003003200f1ff2700f0ff2f00aeff370031
:101170000d48a300030032006000b8008c807000ae
:10118000a9ff37000748a3000400320001f8270038
:10119000000020008c807000a3ff3700760107005c
:1011a0000004fd008104fd000205780072010700c3
:1011b0000802be008a01780059ff37000160a000d4
:1011c000120220003242880097ff37000100e00041
:1011d000120032000500e00010003200889fbe00bf
:1011e0008a9fbe008c9fbe000006eb0001f8a300a2
:1011f0000300320060001000e08018000cf0a00036
:1012000005f8a3000300320060021200e0821a0019
:101210000cf0a2008005eb0041ff37006000b80031
:10122000020005000383680007002800070363002d
:10123000470ade000480a100c71ade000580a10075
:10124000f70f20000720e100420032000728e100ec
:1012500040003200889fbe008a9fbe008c1f78002d
:10126000f107b200f307b2000400e00064003200ae
:101270000170a0000500e000680032000370a000cb
:1012800085054200eb07b1000204b8000302b80074
:101290008484440060854a00020ab80084844400c3
:1012a0000a854a00030ab80004054500040033001b
:1012b0000804d0008984d2000a85d2008b05e90099
:1012c0006158e1003d003500021020000901610075
:1012d0000308200089816100f707200087836400ec
:1012e00008867300c84cde00c853dd008784740094
:1012f0004855de000300e00006003200820376005d
:10130000040032008904e80060054d000a88a3004b
:101310000c003a00f70f20000758e10044003d00a0
:101320000a70a100c75ddd000a8575008a007300a0
:10133000090078004f0678004f05be004f04be003c
:10134000000006000a05d1008984d3008b05e8005f
:10135000f0ff3700881f780006047800900007002f
:10136000070278000001fd008101fd008c000700ec
:1013700087027800850372000778a3000500320019
:101380000001fd008101fd009f0007004f0478006f
:1013900000000600850372000748a3000300320026
:1013a000f0ff2f00f1ff2700f8ff370000002000ba
:1013b00001f8270088807000f4ff3700880178006a
:1013c0004848dd00808171004848de00c850dd00db
:1013d00001007000c850de00060478000b017800a0
:1013e0001600070088807000d2ff37000500e0007b
:1013f00005003200170020003a0007009dff37006b
:1014000081037000f9ff3a00860078004f067800eb
:101410004f05be004f04be000000050083037100ad
:10142000f9ff3200270020002e00070094ff37004c
:1014300001f8270086807000f4ff37000100e0000b
:1014400026003200610111007810e10023003c0009
:101450006022b8007010e1000400350080027800be
:10146000010078008000eb00700151000200e000f4
:101470000900340070031100062add00822ade0014
:101480008603dd00878272000200de00860bdd002d
:10149000070070008208de0084817100f4ff2700dd
:1014a000048262008481710004002800848262004a
:1014b0006102600005f0a6000000060004827100d1
:1014c000070032000000e800e0804800000006004d
:1014d0000002be006000b800efff37006000b800f7
:1014e00000000600889fbe000004eb006138e100a8
:1014f00016003a000100e00008003a00c800de00d3
:101500004800dd00880020000100e00003003a00f0
:10151000c800de004800dd00680444008184cf007c
:10152000e9845400060034008908dd00f0831400cb
:101530008703de00878070000900dd000904440095
:10154000610214004f04be00000006000300e0002a
:1015500008003a00c811de004811dd0088002000b4
:101560000300e00003003a00c811de004811dd006e
:10157000680444008384cf00e984540006003400ea
:101580008919dd00f08314008713de008781710064
:101590000911dd0009044400e1021400e9ff3700ed
:1015a0002700200001f0a70017002000470bde00f5
:1015b000f60fb200040032000643e8000a003200d1
:1015c0004702b3000000060001037800f607b200ee
:1015d0000603700002003a000703b3000000060093
:1015e0008702b3000000060001037800f607b2008e
:1015f00006037000020032000770a0000000060021
:101600000760a000000006000478a3000400320078
:101610000578a300030032000168a30001003a002e
:101620000200be000160a000000006008101700001
:10163000270032008002eb0001f8a3000300320013
:1016400060001000e080180015002000f407200062
:101650000202420020003400f703200087036000ec
:10166000060420000003630002082000000161005e
:101670004700de00c909dd0000807100c708de00f8
:101680000600e00008003200870371000600320007
:101690001000b0000180b0000188a30002003200f9
:1016a000c108de000402e800f107b200f30f2000d9
:1016b0000320e10003003d004722dd0081007200ad
:1016c0002900370001f827000000eb002600370052
:1016d0006000b80000000600680212007f20e100f0
:1016e000020034006000b8001f0037006011b8002d
:1016f0007020e100040035008001780001007800ce
:101700008000eb00700252000400e0000900340089
:10171000f00312000719dd008419de000703dd0065
:10172000868171000400de00070bdd0006007000fa
:101730008408de00f7ff27008383630087037100be
:101740000600280003036300070032000700e000e2
:1017500003003a0061016000028173000200320060
:101760001000b0000180b0000500a60000000600d7
:1017700001f0a000000006004f0ade004709de006d
:10178000f107b200f20fb2000b003200f207b10015
:101790000170a000c708dd00c901de008380700071
:1017a0004700dd000400a6000000060060001000f5
:1017b000e080180000000600810f700001003a0070
:1017c000000006008182cf000500e00010003e000e
:1017d0008082cf00ee8242007028e10004003900d0
:1017e00007003e00800078000000eb000e0037008c
:1017f000708312008600de000500dd000a0037005d
:10180000708352008600dd000000eb000600370008
:10181000e28252008508dd00708312000603de00bc
:10182000868070000500dd007507b0000501ea0044
:101830000400a6000000060060001000e080180010
:1018400000000600889fbe008a9fbe0000827000d4
:101850000402710004827100260032000004be0000
:101860000200be006011b8006b0920009502200044
:101870000182cf000a0039000541b1000082cf008b
:10188000070039000541b1000982cf00040039008a
:101890000541b1000882cf00010039000541b100c7
:1018a00005425200120032000a003b0082817100a2
:1018b000610164008100d1000080d3008984d300dd
:1018c0000884d3008b05e8000442e800f7ff3a00e3
:1018d000070037000804440089844c0000004800d9
:1018e000818048008b05e9000442e900f9ff3a00d5
:1018f000030007004f05be004f04be0000000600b5
:1019000081002000618055000b003d000b0020008d
:1019100061fe2f000100e1001d0034008281710092
:10192000610164008904d1000884d3000000e8004c
:10193000faff3a00710020006100640003007000ab
:10194000020060000900320061044400e0844c00a1
:101950000988a500050032008b05e8006808e10051
:1019600002003a008904d1000884d300f20f20005d
:101970000258e10005003d00c75ddd00f907b20037
:101980008980750008007800000006000bf8270029
:101990008b0078000000050051588000910078000d
:1019a00009020700110020000000e00005003500da
:1019b0005058800090007800a00020008b020700a3
:1019c000cf00de000100ea00000006000000060073
:1019d00000b1200000000600fdff070070588800dd
:1019e0006058880000000600114290000482fb004d
:1019f0009180fb00c808dd00048270008000780040
:101a0000d181fb001081fb004811dd000301710052
:101a1000030037004811dd001180fb000201700057
:101a2000010078003104e00004003200840f51000e
:101a3000f8ff3a000000e900000006000000050081
:101a4000114390008683fb00060020001181fb00fb
:101a50008001eb00c811dd000200200002037300ca
:101a600083837300214190004811dd008001eb0069
:101a700002037300838373008080e80010419000ac
:101a80008281fb00020020001082fb008002eb003c
:101a9000c822dd000400200004017100858171006e
:101aa0001182fb004822dd008002eb00040171007e
:101ab00085817100080037001182fb008002eb0075
:101ac00004027100858271004829dd00c821de0012
:101ad000830171004821dd00010078003104e0003d
:101ae00005003200860f5100878f5900f2ff3a003f
:101af0000080e9000000060000000500889fbe008d
:101b0000314290000482fb008002eb00010178006a
:101b10003283fb008003eb00c833dd0006002000a9
:101b200006037200878372001281fb008001eb00c4
:101b3000c011dd00020020000203730083837300e4
:101b4000214190004811dd008001eb000203730089
:101b500083837300e30040001182fb008002eb00ee
:101b6000800178003384fb008004eb00c844dd0072
:101b70000800200008047200898472001381fb00b1
:101b80008001eb00c012dd0004002000040174009d
:101b900085817400204290004822dd008002eb0025
:101ba00006003700481add00c812de008502720008
:101bb0004812dd001181fb008001eb000201720080
:101bc00083817200010078003104e00005003200da
:101bd000860f5100878f5900f2ff3a0063005000d2
:101be000010037000000eb004f04be0000000600bb
:101bf0008f22b000889fbe008a9fbe008c9fbe00cf
:101c00008e1f78000004780081057800c0dc2f006a
:101c10000f0040000f0009000018eb000002b100a7
:101c20000b017800880078008004eb00100037007a
:101c30000080fb00c401de0083814100c4dc2f0072
:101c40000f024200830142006f0260001500200075
:101c5000042add00930972008584440000004000de
:101c6000c7dc2f008f8343000080430009109800d9
:101c7000324078000004e00005003a001a0020001d
:101c80000a0078000001eb008081eb0019003700aa
:101c90003104e000e6ff3a00a2003700038245006d
:101ca000e44278006bc2780084cf520005003a000d
:101cb0008a0f50000c0032000000e800820078001b
:101cc0000b00370084cf520002003600038550001d
:101cd000060037008200e800820178001a00200028
:101ce0000a0078000200370000057800100020008c
:101cf0000101780082004000898f5000e7ff390021
:101d000011002000010078000002eb008086eb004b
:101d1000160037008d82450065437800eb4279005c
:101d2000854f530005003a00810f50000c0032002f
:101d30000000e800040178000b003700854f5300d5
:101d4000020031008d005100060037000401e80058
:101d5000840678001100200001007800020037009e
:101d6000800078001000200002027800040140008a
:101d7000890f5100e7ff39000d01e8000300e8007a
:101d8000800f510002003600010578000100370085
:101d9000830678000d02e8008a804500040178007f
:101da0000b00780084bf9f00630107000fba970003
:101db0000000e000080032000905e9000d055500ab
:101dc0008d0f5500010031000d0578000a05e8006f
:101dd0008001eb00010037008a8154000807780079
:101de0000006eb0008005700890f50001400310076
:101df00089027800f503b300050178008000eb004c
:101e00000e007800e3b79f0084bf9f00f5b79f00e6
:101e100019010700efb197000fba9700ffb29700c2
:101e20000000e0000500320088005000898f50005b
:101e30003c00390000077800010037000507470023
:101e40008900440071f897000080fb006f0160007a
:101e5000160020000233dd004401de0002014100d3
:101e6000c7dc2f008f834300e70279000501630080
:101e70000d00320000004000008043000010900080
:101e8000008054000a0032000300e0001500320018
:101e90000c00e000130032008a0f500011003100e6
:101ea0000a8054000f00370001047800ccff37008f
:101eb0000c007800840f5600030031000400780005
:101ec000010037000000e800eb4078000104e0006a
:101ed000060032006841780082cf5000f9ff3200de
:101ee0000d00500000044400bdff37000d007800d5
:101ef0008000e8008c8f5000080036006b417800ad
:101f0000e84078000000e900814f5100f8ff3200fe
:101f10000a04440003067800b2ff37000800780086
:101f2000010037000000eb004f0778004f06be00ad
:101f30004f05be004f04be00ef1fb100af02b1005d
:101f400000000600881f780001047800984078009f
:101f50000104e000260032008100fb00700607004b
:101f60000000e00022003200984090000104e000f0
:101f70001f003200904090000104e0001b0032007e
:101f8000a84090000104e00003003a0088007800b7
:101f900095fe070016003700a04090000104e00005
:101fa00012003200b84090000104e00003003a0043
:101fb00088007800a2fe07000d003700b0409000b6
:101fc0000104e00009003200c84090000104e00074
:101fd00003003a0088007800c8fe070004003700bc
:101fe0008800780002ff0700010037000000eb00c6
:101ff0004f04780000000600889fbe008a1f78000a
:10200000800478004900900002047800800f54009a
:102010000100360000047800080178006a85440059
:102020001a007800d20007001a004400000d780062
:10203000e8844400990c14000048eb004f05780038
:102040004f04be00000006001000780050fa370070
:10205000900190000388a30001003200e6ff3700e2
:102060000348a30001003a00f7ff07000000060044
:10207000889fbe008a1f7800000478000105780060
:102080000000eb000800e0001a0032001800900089
:102090000058a3000c003200ea04440068009000dd
:1020a000990f100008003600b80990000001eb00fd
:1020b0008200780008007800030001000080eb0037
:1020c0001900e0000b003200740044000008eb002f
:1020d0006c0044000008eb006a0044000008eb00bc
:1020e0000000eb000a00e000020032001800780057
:1020f0001bfa07004f0578004f04be0000000600e1
:10210000889fbe008a1f78000004be000000eb001c
:102110000800e00029003200180090000058a300d9
:10212000120032006a054400680090009a0f100007
:1021300008003600b80990000001eb00820078002a
:1021400008007800030001000080eb001a00e000a6
:102150001a003200740044000008eb006c004400d8
:102160000008eb006a0044000008eb00780a9000c9
:1021700008109000800f520006003100000252004b
:1021800011002000cfa2de00612bb90018007800fa
:10219000e4f9070000022000080040000008eb00fe
:1021a0007e0044000008eb000000eb000900e000a6
:1021b0000200320018007800e9f907004f057800a6
:1021c0004f04be0000000600889fbe008a1f7800f2
:1021d0008004780001057800090078008400070079
:1021e000000478008a0178000801780011002000be
:1021f000090078000a000700800078000080eb00ea
:10220000888f500001003a000000eb004f05780075
:102210004f04be000000060010007800dcf9370013
:10222000889fbe008a9fbe00810478000204780067
:1022300009c5b9000900e00001003a000004eb0004
:102240000a01780080007800030078007eff070014
:10225000800078008a8f50000300320011000900ce
:102260008980d80000047800080078004f05be007f
:102270004f04be00000006008180fb000100370013
:102280000201e900800178000008a3000600320086
:102290000200e000230032003082fb00810f520078
:1022a000f7ff3a00030037000000eb000200e000f7
:1022b0001e0032001380fb00810f50001c00320012
:1022c00014102000048ab90084027800010037004d
:1022d0000281e90003007800e10f51000a00360096
:1022e00033826a00f6ef2f00040343000482ea0001
:1022f000040263000608280006026200f4ff3200b0
:10230000010037000201e900800178000200e000ce
:10231000050032003082fb00810f5200f9ff3a00c5
:1023200003003700000005000000eb00000006007d
:102330000300780000000600010037000201e900f8
:102340000200e0000500320030427800b141780020
:10235000834f5200f9ff32000100370000000500f2
:102360000480fb008381fb00030050000000060096
:102370008001780002003700b15978000201e900bd
:102380000200e000fcff3a00000006000200fa0034
:102390000001780001007800e2ff9f0090009000ab
:1023a0000188a30006003200ea0140009300780093
:1023b000825878000280fb0081097800090037000c
:1023c000120020008f80e9001fff070080007800c6
:1023d0000080eb000100e00002003200eff89700ff
:1023e0000180fb000080fa0000000600e7ff3700d4
:1023f00080007800040037003104e00002003a0059
:102400000000510000000600010178000108a3004f
:10241000f9ff3a008101780031017800f4ef2f00d4
:10242000020242000281ea00020162000408280060
:1024300004016100f7ff3200830078000101780099
:102440003104e000fdff3a000000510000000600ea
:102450000000fa00cfb897006881570050588000fc
:1024600010007800a60207000080fa0000000600b5
:1024700001003700000006008f04b000889fbe00f6
:102480008a9fbe008c9fbe008e1f7800809f9f0099
:10249000f19f9f00c3779f0001007800b000780093
:1024a000e1a79f0010007800d0b79f00ff99970028
:1024b000a3019000d3a79f007f9a97004402900049
:1024c000f4979f00ff9a9700b50690003204be0073
:1024d0002205be006022b8006033b8000800be00cc
:1024e0000a01be00570607000000e00003003d009f
:1024f0000bf0a200d0c2b300040037006fa3970016
:102500000628a30008003200b0c2b300804e780055
:10251000dfa397008703e900c7af9f0010002000ea
:10252000f0a79f000f003700efa097000138a3002d
:102530000800320000c2b300804e78005fa197000f
:102540000201e900c2af9f0013002000f3a79f0023
:10255000040037005fa29700c4af9f008002eb0029
:10256000f5a79f000800be000a01be00c1ff0700da
:10257000f4ff2f00f5ff2f00f6ff2f00f7ff2700d5
:1025800004026000858260000603610087836100a9
:102590006000b8000200200003ff27000020e100d7
:1025a00001a8e10002b0e10003b8e10010003a0028
:1025b0004f7397008600fb001104b100ffa3970042
:1025c00007804600f98f500002003e00e1bc200069
:1025d0000100370021bd20003605070020bd200086
:1025e00083ff0700ffa0970001014000140037009f
:1025f0000020e10001a8e10002b0e10003b8e10021
:10260000120036004f7197008200fb001104b100e8
:10261000ffa1970003804600f98f500002003e00a2
:1026200061bd200001003700a1bd20002105070089
:10263000a0bd20006eff07007fa2970004014000ac
:102640006fa29700dfa19700190237006022b8003f
:102650006033b8000800be000a01be00f90507009b
:102660000000e000680032006000b80002002000b6
:1026700003ff230080af9f0091af9f00a2af9f0098
:10268000b3af9f000007eb000802be000a03be00c4
:10269000d4af9f00e5af9f00f6af9f0087b79f00c4
:1026a000070037000e07e8000800be000a01be0060
:1026b00080af9f0091af9f00a2af9f00b3af9f007c
:1026c0006022b80006002000470224000fa89700ef
:1026d0009fa897002fa99700bfa997002f07070071
:1026e0000004be000205be000002be000203be00e0
:1026f0005fa89700efa897007fa997008fb1970078
:10270000d00507000000e000e6ff3d000006eb00fa
:102710000fac97009fac97002fad9700bfad97000f
:102720002500370040ed2f00800f570019003d00b5
:102730000c00e00016003a006022b80006002000fd
:10274000073524005fa89700efa897007fa997009e
:102750008fb19700110707000002be000203be0000
:10276000d4af9f00e5af9f00f6af9f0087b79f00f3
:102770006022b80006002000073524000800be00d3
:102780000a01be00050707000004be000205be00e6
:102790001c0020006022b800060020004702240030
:1027a0000800be000a01be004d0607000004be007e
:1027b0000205be000e07e9000802be000a03be00c3
:1027c0005fa89700efa897007fa997008fb19700a7
:1027d0009c0507000000e000d2ff35000800be00a5
:1027e0000a01be0080af9f0091af9f00a2af9f0083
:1027f000b3af9f005fac9700efac97007fad970041
:102800008fb59700080037006022b800060020004e
:1028100007ff230084af9f0095af9f00a6af9f00e6
:10282000b7af9f000007eb00cf7297000500fb00d9
:10283000a7040700d0779f005fb3970060002000d7
:102840000600e000010035005fb0970071c6b300dc
:10285000df73970081cf53000a003a00dfb0970082
:102860000100e0009b0132009b0137008e0f5000f9
:102870009f013c00d0af9f0052c6b30082cf9f00a3
:102880001e003700df71970083cf9f0002003700e2
:1028900064c6b30084cf9f000000e800d0af9f0063
:1028a00060c6b3008fca970080cf520013003a0071
:1028b0000e00e00008003d006000b80002002000ab
:1028c00003ff230080af9f0091af9f00a2af9f0046
:1028d000b3af9f000007eb0061c6b30081cf9f003c
:1028e00070c6b3005f719700804f51000300320043
:1028f000dfa997008e814100d3af9f000faa9700f8
:102900009faa97002fab9700bfab970094b79f008b
:10291000a5b79f00b6b79f00c7b79f000800be00cd
:102920000a01be00d0b79f00e1b79f00f2b79f0039
:1029300083bf9f000006eb000802be000a03be0032
:10294000b49f9f00c59f9f00d69f9f00e79f9f0059
:10295000310037001fb29700afb297003fb3970026
:10296000cfb397005fb09700efb097007fb19700ab
:102970008fb99700da050700360807000004be008b
:102980000205be00530507008002780085a79f005e
:102990001fb29700afb297003fb39700cfb3970035
:1029a0000800be000a01be007c0607005fb2970067
:1029b000efb297007fb397008fbb970077050700b2
:1029c0000002be000203be0007f0a200d4b79f00c1
:1029d000e5b79f00f6b79f0087bf9f006022b80051
:1029e00006002000470224001fb09700afb09700f8
:1029f0003fb19700cfb19700b90507000002be00b4
:102a00000203be0094b79f00a5b79f00b6b79f0012
:102a1000c7b79f000c06e800dfaa9700850f560095
:102a2000ccff35003f9c9700cf9c97005f9d97009f
:102a3000ef9d97006022b8000600200047012400a7
:102a40001fb09700afb097003fb19700cfb197008c
:102a5000520607000002be000203be0094b79f00aa
:102a6000a5b79f00b6b79f00c7b79f005fb097009c
:102a7000efb097007fb197008fb99700f10407007e
:102a80000000e0000f0035001fb29700afb29700c2
:102a90003fb39700cfb397005fb09700efb09700b8
:102aa0007fb197008fb99700e60407000000e000af
:102ab00011003a008fa297000508a3000800320019
:102ac0000d0037006000b8006011b80090b79f009b
:102ad000a1b79f00b2b79f00c3b79f0006003700a1
:102ae0006022b8006033b80094b79f00a5b79f007c
:102af000b6b79f00c7b79f001fb29700afb297004d
:102b00003fb39700cfb397000800be000a01be0094
:102b1000280507000002be000203be0084a79f0034
:102b200095a79f00a6a79f00b7a79f0050c6b30018
:102b30008fca970080cf520003003a000003eb00d9
:102b4000d6b79f0001003700deb79f007fa6970031
:102b50000000eb0090b79f00909f9f00b09f9f00e8
:102b60008e007800e1979f00660037000faa97005b
:102b70009faa97002fab9700bfab97000fa09700bd
:102b80009fa097002fa19700bfa1970054050700b1
:102b9000b00707000004be000205be00cd04070018
:102ba00000017800efa197000348a3000c003a0051
:102bb0000200e0000a003a0070c6b3005f7297009e
:102bc000804f520006003a00dfb297000500e00097
:102bd00003003d001fb397000607e8002000370000
:102be0009f9b97000700e0000b003a005fb0970042
:102bf0000000e00008003d00e0c2b30080767e00e7
:102c00000c06e800cfa897008100e900c1af9f0043
:102c100013002000939f9f008c8046001fb79700f1
:102c20000300370000c3b300805878000e07e900a6
:102c30000e00e000fbff3a001fb2970004064600ba
:102c40000c80460005c3b300054841000c06e800af
:102c50000480ea004fab970000034300c6af9f001b
:102c60000faa97009faa97002fab9700bfab9700c2
:102c70000800be000a01be00c80507000fa29700a9
:102c80009fa297002fa39700bfa39700c30407003c
:102c90000002be000203be0007f0a20084a79f004e
:102ca00095a79f00a6a79f00b7a79f006022b80026
:102cb00006002000470224000fa897009fa8970055
:102cc0002fa99700bfa99700050507000002be00c5
:102cd0000203be0084af9f0095af9f00a6af9f0088
:102ce000b7af9f00dfb297008502e900d5b79f001c
:102cf0003f9b97000603e800b69f9f008e03780075
:102d000097b79f003f989700dfa89700810f50006a
:102d100005003d007f99970042009000650050003b
:102d2000800f560091ff39006f9797009f99970089
:102d30000300e00006003a006fa297000448a300d9
:102d400003003200e0c2b30080767e000c06e8008b
:102d50000c8046000048eb0051c6b3008fca9700b4
:102d600081cf520036003a007f9397008600e90039
:102d7000018146000049eb008001eb000e00e000fd
:102d800002003d000e07ea00130020002200200090
:102d900081037800cfaa9700000478000b00370069
:102da00081037800a4002000110009000407d80066
:102db00001027800000778000783460000c3b300d3
:102dc000004b42000201e9008502e9008700e900aa
:102dd0000e00e000f2ff3a000200e000f0ff3c00cd
:102de000c5af9f000800780001824600b2c2b30060
:102df0000300e00001003200d2c2b300024a7800b2
:102e00000101e90082804600cf7197000302fb00b8
:102e10001404b10053c6b300f90f520001003e0084
:102e200053c4b300834878004faa97000482e90096
:102e3000c4af9f00820f5600010031001d03070040
:102e4000efa2970063806200e20f500013003a0087
:102e50004fab97000600e000100034000d00780032
:102e600063fd070004003700cfab97008780460062
:102e7000ed7078000000e900ffa19700830f50007b
:102e8000f9ff3100038046004fa99700010320009d
:102e9000100207000002eb00d4a79f000d0078008d
:102ea00053fd07006fa29700dfa197000001780093
:102eb0008d0078000f989700330007004f077800c7
:102ec0004f06be004f05be004f04be008f04b10088
:102ed0000000060010002000e40f470063fe3d00e4
:102ee000d0af9f0055c6b30085cf9f0083fe37004b
:102ef0000e00e00066fe3500d0af9f0076fe370082
:102f00000200fa00881f780000047800e2bf9f00ea
:102f10006481570008007800ce01070098009000f7
:102f20000148a300010032000080eb004f0478004c
:102f30000080fa0000000600889fbe008a1f78000b
:102f4000800478004900900002047800800f54004b
:102f50000100360000047800080178006a8544000a
:102f60001a00780002fd07001a004400000d7800e6
:102f7000e8844400990c14000048eb004f057800e9
:102f80004f04be0000000600f2874700889fbe0085
:102f90008a9fbe008c9fbe008e1f78008004780040
:102fa000010578000204780083057800610762005b
:102fb00002003a008b0f5400080039000801780025
:102fc0008a0078000900780021fc07008b0f54006c
:102fd00002003900880578001e0037000886550079
:102fe0000c017800f00f56000100360002012000ad
:102ff000010220007e805700b60107008c06780091
:103000000500370002012000fe805700090078000b
:103010000ffc0700f0865600ef8f5600f9ff3e00c8
:103020004461de0000ff2f000091b900020146005c
:10303000fe8057000900780005fc07000e00e00044
:1030400004003a00080178008a007800090078003e
:10305000fffb07000b0078004f0778004f06be000b
:103060004f05be004f04be002f01b1000000060056
:1030700000000500000005000000050000017800c8
:103080000040eb008080fb008180400083bb20007b
:1030900063c278000404e00003003a0090bb200003
:1030a00060c078000000060092017800934f520043
:1030b00004003a0090bb200060c078000309e800db
:1030c000010037000040e800ea4f5000edff3600f5
:1030d00000000600f6874700889fbe008a9fbe005a
:1030e0008c9fbe008e1f7800800478000104780059
:1030f00083057800040678000000eb00c0b79f004d
:103100008080eb00d1b79f00e0b79f00f2b79f002f
:103110000008200080bf9f00980078000100780020
:103120000005eb00010037000a05e8003041780097
:103130000204e0000300320053c2b300834f510089
:10314000f9ff3a000a00e000040032000a017800aa
:1031500009007800befb0700180c4500180778002e
:1031600050c2b3009e4f100033013a000e07e80032
:103170000e0c780010003700cfb097000100a000bf
:103180000b003700cfb097000110a00008003700f7
:10319000cfb097000120a00005003700cfb0970006
:1031a0000130a00002003700cfb097000140a0001e
:1031b000c1b79f00000ce80018007800904078002c
:1031c000b2c2b30082cf5000f1ff320007003c00d2
:1031d00002c2b30082cf5000f0ff320032c2b3000f
:1031e00082cf500007003a00efff3700d2c2b30091
:1031f00082cf5000e0ff320002c3b30082cf500004
:10320000e0ff3200a2c2b30082cf50000d003a00ae
:10321000000ce8001c80e900000e78001000780027
:10322000e0b79f000000e0000f003d00cfb0970026
:103230000100a200c1b79f000000ea00e0b79f00b4
:1032400009003700f5010700e0b79f0001003700d3
:10325000000ce800180078009000fb000103b100aa
:10326000e98f5000faff36004fb097000008a30026
:10327000020032000010a100c0b79f0018007800c3
:10328000e1c2b30090cf100016003a008000eb00be
:10329000d1b79f000000e800000c7800a1c2b30085
:1032a00090cf100006003a00000ce8001c80e900f6
:1032b000000e780010007800d0b79f00090037009a
:1032c000d6010700d0b79f0001003700000ce800ce
:1032d000180078009000fb000103b100e98f500056
:1032e000faff36000800780064ff07008046780087
:1032f000180078001000fb00f5010700910620007f
:10330000810f50003800320012003c0041062000be
:10331000810f5000340032000a003c0011062000ea
:10332000810f50002000320031062000810f500034
:103330009a00320051022000810f5000ae003a0086
:10334000a700370071062000810f5000aa003c0042
:103350008200370001072000810f50005c0032001e
:1033600007003c00e1062000810f5000740032008d
:10337000f1062000810f50009f003a00390037000d
:1033800051072000810f50002700320081072000e4
:10339000810f50004200320031072000810f5000a1
:1033a00095003a00850037008d80fb000c01780005
:1033b00000fe2f000f004000cc0107000000e000dd
:1033c0009c00320018007800000ce8009041780062
:1033d00002fe2f000f014100f8805700090078001d
:1033e00024ff07000e0037008d80fb008c01780061
:1033f0001200200000fe2f000f004000da0107003d
:103400000000e0008b003200180ce80002fe2f00e4
:103410000f014100f88057000900780014ff0700f1
:1034200000054500840037008d80fb008c0178008a
:103430000001eb0000fe2f000f004000ca01070052
:103440000000e0007b003200180ce80002fe2f00b4
:103450000f014100f88057000900780004ff0700c1
:10346000efff37008d80fb008c0178000001eb003e
:1034700000fe2f000f004000bb0107000000e0002d
:103480006c003200180ce80002fe2f000f01410012
:10349000f880570009007800f5fe0700e0ff3700cc
:1034a0008d80fb008c0178000001eb0000fe2f00f6
:1034b0000f004000ac0107000000e0005d0032009a
:1034c00018007800000ce8009041780016003700e2
:1034d0008c0178000001eb00010f200000fe2f009e
:1034e0000f004000a00107000000e0005100320082
:1034f000180ce8000fb097009fb097002fb197000d
:10350000bfb19700e00f5000e08f5800e00f590066
:10351000e08f590003003a008001eb0022bb20003d
:103520004000370083c7b30002fe2f000f014100a7
:10353000f880570009007800cefe0700b8ff37007a
:103540000b0145008d80fb008c01780000fe2f00f0
:103550000f004000dd010700360037008d80fb00c2
:103560000c01780000fe2f000f0040005f010700f3
:103570000000e0002f00320018007800000ce80086
:103580009041780002fe2f000f014100f8805700a3
:1035900009007800b8fb0700a1ff370000c8b3009e
:1035a00080cf560023003a00180ce8001c80e90088
:1035b000000e7800104078000d00370000c8b300fe
:1035c00080cf56001b003a00180ce8001c80e90070
:1035d000000e78008001eb00100178001100370028
:1035e00001c8b30081cf560012003a00180ce80061
:1035f000e0df9f000800370050c2b300e0df9f000b
:103600000e0c78000000eb00c0b79f00e0b79f00f1
:103610008080eb00d1b79f0013002000e2fd2f0057
:103620000f014100f88057000900780092fe070062
:103630007bff3700180ce8000a0078004f0778007d
:103640004f06be004f05be004f04be006f01b10023
:10365000000006008200fa00889fbe008a1f7800e2
:103660000005780082047800c13f9f000004eb0051
:10367000100037000902780088017800a2f72f00b7
:103680000f01410081f72f008f8040000a00780071
:1036900090fe070008004000880f500004003d0025
:1036a000b0042000205f88000084eb000400370095
:1036b000000478004f3897001004e000edff3a0056
:1036c000080078004f0578004f04be000080fa0023
:1036d00000000600889fbe008a9fbe00800478001c
:1036e0000200e0005a00320001407800814c78006e
:1036f00082814400f1f99f00e20f5100540036002e
:1037000091449800a1449800e1f99f00d1f99f00ed
:10371000e60f51004e003600b1449800c1f99f00f9
:10372000e80f51004a0036000905ea00630565000c
:103730000a8444000a055100c1ff2f0001056500fd
:103740000080fb008000eb0012102000131020000e
:103750000c020700008cbe000a01440060b99f0003
:1037600071b99f00e80f5500390036002004980019
:1037700031049800400498005104980020b99f003b
:1037800031b99f0040b99f0051b99f00f80f550013
:103790002f0036006004980071049800000c980017
:1037a000110c9800200c9800310c9800400c9800e7
:1037b000510c980020b19f0031b19f0040b19f0093
:1037c00051b19f0060b19f0071b19f0000b99f008f
:1037d00011b99f00640164007801410002044400b3
:1037e000020555006011b8000203be000002be00d1
:1037f0000403be006022b8000000720081807200e5
:1038000002017300838173000f0037000802780003
:10381000009abe00029abe00009abe000292be004c
:10382000000c9800110c9800220c9800330c9800a2
:10383000400c9800510c9800620c9800730c980092
:103840000a02b1000802b000ff0f5500efff3e0072
:10385000090078004f05be004f04be0000000600be
:103860000000fa00cfb897006881570003000700f6
:103870000080fa0000000600fffa3700820178009d
:1038800001017800f1ff270000003700f2874700b0
:103890008e1f780002027800030178000000e0002b
:1038a00002003200000778000100370072875700dd
:1038b0008002eb000100e000010032008102e9001b
:1038c00070805700060009000018eb007280570056
:1038d00000a8eb002310200093bf9f00aebf9f0005
:1038e000b1bf9f00c5bf9f000100e00004003d0084
:1038f000b0042000205f88000080eb000500370046
:10390000004feb00eebf9f00debf9f0084007800f9
:103910007bfd07004f0778002f01b1000000060073
:10392000881f7800010478008800780005000700ef
:10393000904f1400010032000000eb004f047800ab
:1039400000000600881f7800000478008180fb00da
:103950000a003a0008007800a5fa070000004400b9
:10396000220037001804e000200032000804e800bc
:103970001081fb00810f51001c003200080078000c
:103980000808a300f7ff3a0014102000048ab900c9
:103990000801780038007800f5ef2f00808242009f
:1039a0008081ea008382620003082800838262002b
:1039b00007003a0000006a00f5ef2f008082420005
:1039c0000080ea000080620083016000f0ff3200a6
:1039d000020078001204e000040032000201e80056
:1039e0009081fb00818f5100f9ff3a004f0478006d
:1039f0000000060080007800100020000202200075
:103a0000828f500004003200e9805000e48f5000a3
:103a1000010036000000eb0000000600889fbe0099
:103a20008a1f7800800478000904780088047800f0
:103a3000394578000a00fb00eeff07000000e000b7
:103a4000f9ff3a00b0c2b300804f550005003200c4
:103a5000d0c2b3008000eb00804f550005003a0053
:103a6000020037008000eb00010037001100200049
:103a70000804e8000000eb00030037006a02b90008
:103a8000020052000003b0003801fb0003fd2f00cc
:103a900082814100e98f5100f8ff36000100e0000b
:103aa00001003a000000ea004f0578004f04be0014
:103ab00000000600881f78000004780008007800e5
:103ac000c0000700080078004f04780000000600de
:103ad000f1fb2f0080804000f98f500001003e0074
:103ae0000050a00000000600f9ff3700881f780092
:103af0000004780000082000808f50001700350077
:103b000010082000808f50000b0034003008200087
:103b1000808f500011003a009200780068805000b9
:103b2000000978003002be002003be00049cbe00e5
:103b30000694be00070037009202780064805200ad
:103b4000000978001000be00c3000700009cbe0002
:103b50000294be0010002000010037000000eb00be
:103b60004f0478000000060084082000848f500075
:103b70001d0032000d003c0014082000848f50000e
:103b80002700320002003c00040820000400370037
:103b900024082000848f50002a00320044082000ae
:103ba000848f500048003a003b003700040a200090
:103bb000848f50002c00320004003c0004092000d7
:103bc000848f500040003a002d003700020c200086
:103bd000828f50001e003200020f2000828f5000a2
:103be00039003a00300037009380e9000200e0001d
:103bf00005003200810978001102fb00cfa2de002f
:103c0000612bb9002d00370081097800114278003e
:103c10000482fb008002eb006033b800270037000d
:103c200013027800e40052000200e0000a003200b3
:103c3000810978001102be004fabde0086037800d8
:103c40001e00370093027800e88052000e00370013
:103c500093027800e4805200810978001102be00ce
:103c60006033b800150037009380e90081097800bf
:103c700011027800cfa2de00612bb9000f003700df
:103c800013037800e8005300810978003102be0078
:103c90002103be00090037009380e9000200e00024
:103ca00002003200f1ff37009380e90081097800bb
:103cb000110278008002eb006033b8000498be0067
:103cc0000690be001000050000000500440820001a
:103cd000848f5000270032000a003c0014082000a6
:103ce000848f50001c00320024082000848f500074
:103cf0002600320004082000848f50002c003a0077
:103d00001c00370004092000848f50001f0032007f
:103d100004003c0084082000848f500024003a00f6
:103d200007003700040a2000848f50001100320081
:103d3000040c2000848f50001d003a00060037005c
:103d40009380e900810978009100780001087800eb
:103d500082487800150037009380e90081097800d7
:103d60009100780001087800cf91de008288be00c3
:103d70000e0037009380e9008109780091007800f7
:103d80000108780082087800080037009380e90075
:103d90008109780091007800010878006112b9006b
:103da000612bb9008498be008690be00100005000b
:103db000000005000000060007f70700fdff0700f0
:103dc000fcff370001017800800178000082680064
:103dd0000408a300050032001300370032407800c9
:103de000805978000004e0001400320003027800db
:103df0000208a300f9ff3a00030078000100370031
:103e00000318780082007800b2017800f5ef2f00e7
:103e1000838242000382ea000482620005082800cf
:103e200005026200f6ff320000027800314178009e
:103e3000025878000204e000fbff3a00040078001a
:103e4000000006008f1fd100750207008f87e90070
:103e50000000e00000000600810378000ff3070077
:103e60000001be006000b8000478a30013003a000f
:103e70006220e10015003e000d0039008301d100f1
:103e80000281d3008180d3008301d1000281d3005d
:103e90008180d3008301d1000281d3008180d300cf
:103ea0000538b000c42add00f300b200838172003f
:103eb00007f0a70003f0a0000000060083ff270022
:103ec000020020006110b900f9ff370003ff27004e
:103ed000f7ff37001400fa00889fbe008a9fbe00db
:103ee0008c9fbe000004be000205be0068004700b3
:103ef0000a90be000890be00840207000070a70070
:103f00000bf0a100304320009e02900080825200fe
:103f1000b0fe2f000028e10011003d00b0fc2f0092
:103f20000028e100150034001e0990008e08900062
:103f30007e0090000501b0000201d1008180d30015
:103f40000080d3008502e800fbff3a000b00e00090
:103f5000a9023b0060001000e0801800a6023700b4
:103f6000f0ff2f00f1ff27000b00e000a2023b0052
:103f700001002800000020009f0237006000b80008
:103f80009d023700020ab900001bb9000200b80008
:103f90008100420081004300000006008c9fbe00ab
:103fa0008a9fbe00889fbe00ca0107000bf0a200d6
:103fb000040037008c9fbe008a9fbe00889fbe0011
:103fc000c40107000c48e1000b003a000c40e1007e
:103fd000020032008b010700400037008b066d00a5
:103fe0003e0032000af0a100f3012000f2ff2f0092
:103ff0006110b900390037000c40e1003700320091
:104000000940e100010036007e0107008a856d004d
:10401000cf5dde000b0575000006eb008804fd0097
:1040200089045400010032007d0107000a04e00009
:1040300011003a000800e0002800320004004000af
:104040008580480006014900878149000358a30084
:10405000180032008301d1000281d3008180d30097
:104060000080d3000c86d300010039006106760081
:104070000804e8001800370004005000858058004c
:104080000601590087815900060031000af0a2009c
:104090000c06ea0060001800e080180060011900ba
:1040a000e081190003003a000004eb000005eb007a
:1040b0000a0037000348a30007003a000c06460038
:1040c00000004800818048000201490083814900c6
:1040d0000804e900f7ff3700af013700c9013700d6
:1040e0008c9fbe008a9fbe00889fbe00790107009a
:1040f0000b056d000940e1000a003a000800e000ed
:10410000020032000c40e10006003a000af0a10073
:104110000c047800f3012000f2ff2f006110b900b9
:104120009d0037000c40e1009b0032000800e000d9
:10413000990032000c48e10002003a000004eb0054
:10414000030037000900e00004003a000c04780086
:104150006000b8006011b8008f0037000348a3006a
:1041600006003a000000400081804800020149003a
:10417000838149000804e900f8ff37000748a300dd
:1041800006003a000402420085824a0006034b0002
:1041900087834b008904e900f8ff3700fd3f2000ca
:1041a0008d845400090454008a1f7800881f780009
:1041b0000004780081047800020578008305780007
:1041c0006000b8006011b8000d0420000500370041
:1041d0000804440089844c000a054d008b854d007d
:1041e000080031000404540085845c0006055d006d
:1041f00087855d008381d2008d06d300f4ff3b00ec
:10420000070037000404440085844c0006054d0077
:1042100087854d008381d2008d06d300ecff3b00e3
:104220000804440089844c000a054d008b854d002c
:10423000080031000404540085845c0006055d001c
:1042400087855d000281d2008d06d300f4ff3b001c
:10425000070037000404440085844c0006054d0027
:1042600087854d000281d2008d06d300ecff3b0014
:104270000804440089844c000a054d008b854d00dc
:10428000080031000404540085845c0006055d00cc
:1042900087855d008180d2008d06d300f4ff3b004e
:1042a000070037000404440085844c0006054d00d7
:1042b00087854d008180d2008d06d300ecff3b0046
:1042c0000804440089844c000a054d008b854d008c
:1042d000080031000404540085845c0006055d007c
:1042e00087855d000080d2008d06d300f4ff3b007f
:1042f000070037000404440085844c0006054d0087
:1043000087854d000080d2008d06d300ecff3b0076
:104310000b00e00004003d000404440085844c00d0
:1043200006054d0087854d000006eb008301d10096
:104330000281d3008180d3000080d3000c86d3009b
:104340008301d1000281d3008180d3000080d3009b
:104350000c86d300890474008b0575008b8474006f
:1043600001003200610676004f0478004f057800a6
:104370000348a30007003a000c064600000048006e
:104380008180480002014900838149000804e90056
:10439000f7ff3700000137001a0137008c9fbe007d
:1043a0008a9fbe00889fbe00ca0007000b056d00f3
:1043b0008a0578000c40e10008003a000900e0009e
:1043c00082003a000af0a1000c047800f3012000fa
:1043d000f2ff2f006110b9007c0037000c48e100ab
:1043e00004003a00870007000900e00077003a0067
:1043f000f4ff37000800e000740032000900e0001c
:1044000002003a007f00070070003700ed3f2000f7
:104410008d845400090444008a1f7800881f7800a6
:10442000871f7800861f7800851f7800841f78001a
:10443000cb19dd00c515de008b8571004b11dd0049
:10444000450dde000a057100cb08dd00c504de0065
:10445000898470004b04dd000440b8000546b800b4
:104460008c80400060814e00044eb8008c8040007b
:104470000d0149008001eb000318ad000456b8009f
:104480000c0141008d8149000002eb000420ad00c9
:104490000646b8000c0141008d81490060024a00c7
:1044a000054eb8000c0141008d81490060024a00b0
:1044b0000556b8008c8141000d024a008002eb00d5
:1044c0000528ad000746b8008c8141000d024a0066
:1044d000e0824a00064eb8008c8141000d024a007d
:1044e000e0824a004f0678000c5eb8008c814100e3
:1044f0000d024a00e0824a000656b8000c02420053
:104500008d824a000003eb000630ad00074eb80074
:104510000c0242008d824a0060034b004f06780077
:104520000c5eb8000c0242008d824a0060034b0012
:104530000756b8008c8242000d034b008003eb004d
:104540000738ad004f0678000c5eb8008c82420040
:104550000d034b00e0834b004f0678000c5eb80063
:104560000c0343008d834b004f0478004f05780007
:104570000748a3000a003a0000004000818048007c
:10458000020149008381490004024a0085824a00f1
:1045900006034b0087834b000804e900f4ff370053
:1045a0000306780080807000828070000100320075
:1045b00061067600870178000601780085007800a2
:1045c0000400780088047800780037008d003700f8
:1045d0008c06460002003a000000a600000006001b
:1045e00060004800e080480060014900e081490027
:1045f0000350a600000006008301d1000804e80073
:10460000000006000002fd008102fd000203fd0023
:104610008303fd008804fd008a05fd0000000600fc
:104620007048e1001a0039007d0320000d48e100c8
:104630000a00390081057000830671008c857500c1
:104640008d8575000006eb000cd8e700610676004a
:104650006000b8006011b800000006007048e1007a
:104660000b0039008c057800000678000100780006
:1046700082007800030178008001eb0003d8e70096
:1046800061067600f0845400f4ff3a000000060052
:104690006160e1000c48ad00f08514008b06dd0080
:1046a0000966de000d0676008b0edd000900de00d7
:1046b0000d0070008b16dd008908de008d80700013
:1046c0008b1edd000911de000d0171008919de006d
:1046d000000006000d002800fc7f20000d85610011
:1046e000441cde00ef8161000c0464000100320014
:1046f0000340a0008d856300c43cde00ef836300af
:104700008c846400010032000740a0000c40e100ee
:1047100006003a00ef866100828676008186760088
:104720008086760001003200180037000c48e10056
:1047300007003a00ef86630086867600858676005d
:104740008486760002003200aeff07000f003700bb
:104750000348a30005003a008106700082867600b7
:1047600083867600010032000804e8000748a300b1
:1047700005003a00850672008686760087867600f8
:10478000010032008904e80000000600cf04780030
:10479000cf0578001b003700000278008102780006
:1047a0000203780083037800880478000cf0a700e7
:1047b00087ff0700fd7f20000d40e1000400350069
:1047c0000d0478006000b8006011b8000d003700db
:1047d0000800e0000b003c00040078008500780031
:1047e0000601780087017800e18414008cff07003f
:1047f0000cf0a70076ff07000004eb000340a700c1
:104800000804e8004444dd006fc5610088017500bc
:104810004f04be004f05be004f06be00000006005c
:10482000889fbe008a9fbe008c9fbe000404be000d
:104830000605be00809fbe00829fbe0021000700cb
:10484000040678000800be000a01be001d00070033
:10485000840678004f03be004f02be008d4f7600e5
:104860007fb0970013003300f0ff2f008b8f6b0099
:1048700006003b000d0666000c00a7000a0037008a
:1048800007f0a600100020000a003700880f520031
:10489000898f5a008a0f5b008b8f5b000300390001
:1048a0001000200001003e000000200007f0a700db
:1048b0000000ea004f06be004f05be004f04be00d8
:1048c0000000060005ff2700058261000700320096
:1048d0000428e10001003200240005000600070062
:1048e00001003a004400050004080500020007002a
:1048f000f9ff3a00140005006f8261008102700028
:1049000085027100850272000000060080007800b8
:104910005002be005003be004439de00f700b20072
:10492000f37f200003016100090032000218e1005a
:1049300016003a00850172008301730083817300c1
:104940000008200015003a00400020001300370046
:1049500085017200830173008381730005003a00b2
:1049600004a8be0006a8be00100020000b003700ff
:104970000201e9000402420085824a0006034b005e
:1049800087834b000748a300f9ff32000740a000cf
:1049900004a8be0006a8be002000200080009800e9
:1049a0009200980000000600680447000294be00d0
:1049b0000094be00fc0447008694be008494be00b0
:1049c00009007800d1ff070008007800cfff07003a
:1049d00099007800814f70000b003b000800be007a
:1049e0000a0007004f00b10003003700f3ff270063
:1049f000f2ff2f006110b9004f06be004f05be0048
:104a00004f04be000080fa0000000600e48240006f
:104a10001078a30007003200640240001178a30060
:104a20003400be001401be00040032000330a700b1
:104a3000000006003500be001501be000330a000d6
:104a40000000060000c0da000000060000c0da0026
:104a5000000006001800fa00889fbe008a9fbe0072
:104a60008c1f78000004be000205be000802be00d4
:104a70000a03be00443ade00f07f20000006620018
:104a800020432000800f560067003c006022b800e1
:104a90006033b8000800be00eafc07000000e00038
:104aa000610032000802be000a03be00b4b79f00d6
:104ab000c5b79f00d6b79f00e7b79f00e00f520031
:104ac000e08f5a00e00f5b00e08f5b000b003d00c1
:104ad0006022b80006002000073324000800be0052
:104ae0000a01be002dfd07006022b800060020006c
:104af000073324002ffd07000a0037006022b800aa
:104b000006002000073324000800be000a01be0092
:104b100028fd07006022b8000600200007332400ab
:104b20001efd07000802be000a03be001bfd0700b1
:104b30000002be000203be00f4b79f0085bf9f00c5
:104b400096bf9f00a7bf9f00e03f2000800f560048
:104b500017003c007fb097008fb897001fb99700ef
:104b6000afb99700f0af9f0081b79f0092b79f0049
:104b7000a3b79f006044b8006055b8003fb29700eb
:104b8000cfb297005fb39700efb39700e00f5200ea
:104b9000e08f5a00e00f5b00e08f5b0022003d00d9
:104ba0006044b8000a0020000bff2b001e003700f5
:104bb0006022b8006033b8007fb097008fb89700cc
:104bc0001fb99700afb997001e0007000000e00072
:104bd0000c0034007fb297008fba97001fbb97007c
:104be000afbb97000800be000a01be00f1fc070041
:104bf0006022b8000600200007ff2300e7fc070042
:104c0000070037007fb297008fba97001fbb97004d
:104c1000afbb97000800be000a01be00e5fc07001c
:104c20000004be000205be000800be000a01be006e
:104c30004f0678004f05be004f04be000080fa000a
:104c400000000600809feb00f5fe07008f87e9005b
:084c50000000e0000000060076
:020000040000fa
:104c5800524e00004244000034350000315f00002d
:104c6800544500004d5000004552000041540000da
:104c78005552000045000000524e0000424400001a
:104c880034350000315f0000494e000049540000ef
:104c9800494100004c4900005a4900004e470000b5
:104ca8000d000000456e000074650000726500008c
:104cb80064200000434d0000442000004d6f0000b8
:104cc800646500000d000000466100006374000088
:104cd8006f720000792000005265000073650000c3
:104ce80074200000446f00006e6500000d00000095
:104cf800446500007669000063650000204e0000ee
:104d0800616d00006520000053650000740d00000f
:104d180000530000657200007669000063650000ba
:104d280020420000697400006d61000070200000de
:104d380053650000740d0000005200006562000019
:104d48006f6f000074200000436f00006d7000005a
:104d58006c65000074650000640d0000002100000f
:104d680021210000205300007461000072740000cb
:104d78006564000020410000647600006572000050
:104d880074690000736900006e670000202d000040
:104d980020530000636100006e200000616e000077
:104da80064200000436f00006e6e00006563000021
:104db80074200000524e00004244000034350000c8
:104dc800315f0000544500004d500000455200007e
:104dd8004154000055520000452000007573000042
:104de800696e0000672000004d420000442000006a
:104df800417000007020000021210000210d0000fa
:104e080000540000454d000050450000524100008c
:104e180054550000524500003a200000252e00009d
:104e2800326600002044000065670000204300004f
:104e38000d0a000000500000494300003234000011
:104e4800205200004e42000044340000353100007a
:104e580020540000454d0000500d000000000000e7
:104e6800414f00004b0d00000a4300004d44000074
:104e78003e200000414f00004b0d00000a43000097
:104e88004d4400003e200000414f00004b0d000043
:104e98000a4300004d4400003e200000414f00003e
:104ea8004b0d00000a4300004d4400003e20000066
:104eb80052650000626f00006f74000020610000fe
:104ec80066740000657200002046000061630000ff
:104ed800746f0000727900002052000065730000b2
:104ee800657400000d0a000052650000626f000042
:104ef8006f740000696e0000670d00000a41000031
:104f08004f4b00000d0a0000434d0000443e0000d6
:104f1800204100004f4b00000d0a0000434d0000e7
:104f2800443e0000204100004f4b00000d0a0000e5
:104f3800434d0000443e0000204100004f4b00005c
:104f48000d0a0000434d0000443e000020410000cf
:104f58004f4b00000d0a0000434d0000443e000086
:104f6800204100004f4b00000d0a0000434d000097
:104f7800443e0000204100004f4b00000d0a000095
:104f8800434d0000443e0000204100004f4b00000c
:104f98000d0a0000434d0000443e0000204500007b
:104fa8004e4400000d0a0000434d0000443e00003e
:104fb80020000000f2400000fe4000000641000012
:104fc8000e4100005e4100004a41000066410000b9
:104fd8003e4100006e410000444900005343000078
:104fe8004f4e00004e45000043540000005300009f
:104ff80054520000454100004d5f00004f50000032
:10500800454e0000004f0000544100005f52000070
:1050180045510000004f0000544100005f5300005c
:105028005441000052540000004300004f4e00005d
:105038004e4500004354000000000000143a0000f0
:10504800403a0000803a00006a3a00006a390000dd
:10505800c6390000ba390000bc3a000076390000b1
:1050680036390000883d0000b43d0000f43d0000e2
:10507800de3d0000de3c00003a3d00002e3d000011
:0c508800303e0000ea3c0000aa3c0000a2
:020000040000fa
:105094000000fa00413f850010c0b3000100010088
:1050a400623f850010002000010020000200010082
:1050b400413f85000040eb0001000100623f850094
:1050c400800c2000010020000200010003003700d2
:1050d400003f8500000001001de8b700203f850067
:1050e400000001000004e000f9ff3a0010c0b30022
:1050f4000080fa00000006000600fa000e81e800b5
:105104000009780064004700014878000040eb0083
:10511400004f7800103f8500000001000004e0000b
:1051240008003200f23e85001e80fb008e80e800fd
:1051340091007800008040001040780002000100d7
:105144001e4fe80064004700104078009e4078003d
:1051540080cf5000efff390000000000103f8500b1
:10516400000001000004a2000004e000fbff3a007c
:105174000080fa00000006000600fa00881f78008c
:105184000e81e800000978006400470001487800b7
:105194000040eb00004f78008040eb000e00e80078
:1051a4000148780064004700904078000e80e800d1
:1051b40010007800d0ff070009003700623f850027
:1051c4001000200001002000020001000e00e80091
:1051d400104078008040e8000e00e80001487800a4
:1051e400203f8500000001000004a2000004e0004c
:1051f400050032000e00e8009040780010c4b300af
:1052040080cf5000edff3600203f850000000100f4
:105214000004e000120032001e84fb00003f850001
:105224000000010080407800c0a120000800400078
:10523400014878001e80fb00c1a1200000804000ce
:1052440090407800e0c3b30080cf500002003200e9
:105254001e4fe800020037001e40780007003700a8
:105264001e4078000004e000030032001e40780075
:10527400e14f4000e4ff3a001e4078004f047800fc
:105284000080fa00000006000a00fa0066014700e8
:105294000009780068004700014878000000eb002e
:1052a400000f78008000eb000e80e8000108780011
:1052b4008000eb0064004700010878000900370013
:1052c400623f850010002000010020000200010060
:1052d4000e80e800100078008000e8000e80e800ee
:1052e40001087800203f8500000001000004a200ae
:1052f4000004e000f2ff3a000e80e800900078001d
:1053040010042000808f5000edff360007003700a6
:10531400003f85000000010080407800c0a120000b
:105324001e004000014878001e0fe800203f850061
:10533400000001000004e000f5ff3a0068004700a7
:10534400104078000080fb009e0f500002003200e5
:105354000040eb001d0037008000eb0064004700b4
:105364000108780014003700c0a12000e4004700c1
:1053740091007800010040009040780066004700ea
:10538400100178006400470010007800000041001c
:105394001040780080cf5000020032000040eb0043
:1053a4000a00370064004700100078008000e8001d
:1053b400640047000108780064004700100078008a
:1053c4009e0f5000e8ff390010c0b3000080fa00bf
:1053d400000006002400fa000040eb00004f7800b3
:1053e4008000eb000e80e800010878008000eb00ec
:1053f400640047000108780009003700623f850017
:105404001000200001002000020001000e80e800ce
:10541400100078008000e8000e80e80001087800a1
:10542400203f8500000001000004a2000004e00009
:10543400f2ff3a000e80e80090007800100420008b
:10544400808f5000edff36000d003700003f8500cf
:1054540000000100804078006600470064014700b6
:1054640012017800020040000148780064004700ff
:10547400100078008000e80064004700010878000c
:10548400203f8500000001000004e000efff3a0027
:1054940066004700104078000000fb001104200063
:1054a400810f50000400320051042000810f50008d
:1054b4000e0032002100370067004700904078005a
:1054c400f0c4b30080cf500015003a0068004700d4
:1054d40090407800b0c4b30080cf500012003a006e
:1054e40010c0b300004f7800140037006700470075
:1054f4009040780020c7b30080cf50000c003a00e1
:10550400680047009040780020c7b30080cf500067
:1055140009003a000040eb00004f78000700370014
:105524000000000005003700000000000300370001
:105534000000000001003700000000001e40780059
:105544000080fa00000006000e00fa006602470020
:10555400000a780068004700014878006a004700a4
:10556400020878006c004700034878000000eb0054
:10557400000f78008000eb000e80e800010878003e
:105584008000eb0064004700010878000200370047
:10559400003f850000000100203f8500000001005d
:1055a4000004e000faff3a006800470090407800e9
:1055b4006600470010007800cffe0700090037009e
:1055c400623f85001000200001002000020001005d
:1055d4000e80e800100078008000e8000e80e800eb
:1055e40001087800203f8500000001000004a200ab
:1055f4000004e000f2ff3a000e80e800900078001a
:1056040010042000808f5000edff360007003700a3
:10561400003f85000000010080407800c0a1200008
:105624001e004000014878001e0fe800203f85005e
:10563400000001000004e000f5ff3a006c004700a0
